{
	"data": {
		"bytecode": {
			"linkReferences": {},
			"object": "608060405260006001556000600255600060035560048060146101000a81548160ff021916908360ff16021790555060006005553480156200004057600080fd5b50604051620012063803806200120683398181016040528101906200006691906200029c565b620000866200007a620001a260201b60201c565b620001aa60201b60201c565b4260058190555060055460028190555080600460006101000a81548173ffffffffffffffffffffffffffffffffffffffff021916908373ffffffffffffffffffffffffffffffffffffffff1602179055506000600460009054906101000a900473ffffffffffffffffffffffffffffffffffffffff1690508073ffffffffffffffffffffffffffffffffffffffff1663313ce5676040518163ffffffff1660e01b815260040160206040518083038186803b1580156200014557600080fd5b505afa1580156200015a573d6000803e3d6000fd5b505050506040513d601f19601f82011682018060405250810190620001809190620002c8565b600460146101000a81548160ff021916908360ff160217905550505062000369565b600033905090565b60008060009054906101000a900473ffffffffffffffffffffffffffffffffffffffff169050816000806101000a81548173ffffffffffffffffffffffffffffffffffffffff021916908373ffffffffffffffffffffffffffffffffffffffff1602179055508173ffffffffffffffffffffffffffffffffffffffff168173ffffffffffffffffffffffffffffffffffffffff167f8be0079c531659141344cd1fd0a4f28419497f9722a3daafe3b4186f6b6457e060405160405180910390a35050565b6000815190506200027f8162000335565b92915050565b60008151905062000296816200034f565b92915050565b600060208284031215620002af57600080fd5b6000620002bf848285016200026e565b91505092915050565b600060208284031215620002db57600080fd5b6000620002eb8482850162000285565b91505092915050565b6000620003018262000308565b9050919050565b600073ffffffffffffffffffffffffffffffffffffffff82169050919050565b600060ff82169050919050565b6200034081620002f4565b81146200034c57600080fd5b50565b6200035a8162000328565b81146200036657600080fd5b50565b610e8d80620003796000396000f3fe608060405234801561001057600080fd5b506004361061009e5760003560e01c8063b445ec9e11610066578063b445ec9e14610111578063ba24d7671461012d578063bcfc89251461014b578063dec964f214610155578063f2fde38b1461015f5761009e565b80633e4ae317146100a3578063715018a6146100ad57806376671808146100b75780638da5cb5b146100d5578063a3bef4d7146100f3575b600080fd5b6100ab61017b565b005b6100b56101a0565b005b6100bf610228565b6040516100cc91906109df565b60405180910390f35b6100dd610232565b6040516100ea919061095b565b60405180910390f35b6100fb61025b565b60405161010891906109df565b60405180910390f35b61012b60048036038101906101269190610892565b610265565b005b610135610464565b60405161014291906109df565b60405180910390f35b610153610487565b005b61015d6104ad565b005b61017960048036038101906101749190610869565b6104d2565b005b6001626ebe0060055461018e9190610a0b565b6101989190610a0b565b600581905550565b6101a86105ca565b73ffffffffffffffffffffffffffffffffffffffff166101c6610232565b73ffffffffffffffffffffffffffffffffffffffff161461021c576040517f08c379a0000000000000000000000000000000000000000000000000000000008152600401610213906109bf565b60405180910390fd5b61022660006105d2565b565b6000600154905090565b60008060009054906101000a900473ffffffffffffffffffffffffffffffffffffffff16905090565b6000600354905090565b61026d6105ca565b73ffffffffffffffffffffffffffffffffffffffff1661028b610232565b73ffffffffffffffffffffffffffffffffffffffff16146102e1576040517f08c379a00000000000000000000000000000000000000000000000000000000081526004016102d8906109bf565b60405180910390fd5b60096001541015610356578161033f5760055463029874006002546103069190610a0b565b111561033a57610314610696565b61031d57600080fd5b6003600081548092919061033090610ce6565b9190505550610460565b610351565b610347610696565b61035057600080fd5b5b610376565b60055463014c3a0060025461036b9190610a0b565b1061037557600080fd5b5b6000600354111561038a5760006003819055505b6000610394610464565b61039c6106cd565b6103a69190610c03565b9050600160008154809291906103bb90610ce6565b91905055506005546002819055506000600460009054906101000a900473ffffffffffffffffffffffffffffffffffffffff1690508073ffffffffffffffffffffffffffffffffffffffff166340c10f1984846040518363ffffffff1660e01b815260040161042b929190610976565b600060405180830381600087803b15801561044557600080fd5b505af1158015610459573d6000803e3d6000fd5b5050505050505b5050565b6000600460149054906101000a900460ff16600a6104829190610ae5565b905090565b600163014c3a0060055461049b9190610a0b565b6104a59190610a0b565b600581905550565b600162dd7c006005546104c09190610a0b565b6104ca9190610a0b565b600581905550565b6104da6105ca565b73ffffffffffffffffffffffffffffffffffffffff166104f8610232565b73ffffffffffffffffffffffffffffffffffffffff161461054e576040517f08c379a0000000000000000000000000000000000000000000000000000000008152600401610545906109bf565b60405180910390fd5b600073ffffffffffffffffffffffffffffffffffffffff168173ffffffffffffffffffffffffffffffffffffffff1614156105be576040517f08c379a00000000000000000000000000000000000000000000000000000000081526004016105b59061099f565b60405180910390fd5b6105c7816105d2565b50565b600033905090565b60008060009054906101000a900473ffffffffffffffffffffffffffffffffffffffff169050816000806101000a81548173ffffffffffffffffffffffffffffffffffffffff021916908373ffffffffffffffffffffffffffffffffffffffff1602179055508173ffffffffffffffffffffffffffffffffffffffff168173ffffffffffffffffffffffffffffffffffffffff167f8be0079c531659141344cd1fd0a4f28419497f9722a3daafe3b4186f6b6457e060405160405180910390a35050565b6000600554626ebe006003546106ac9190610c03565b62dd7c006002546106bd9190610a0b565b6106c79190610a0b565b10905090565b60008060009050600860015410156106f357600154629896806106f09190610c03565b90505b60086001541061072b5760026298968061070d9190610a61565b6001546298968061071e9190610c03565b6107289190610c5d565b90505b60086001541161074d578063055d4a806107459190610c5d565b915050610827565b6000600460009054906101000a900473ffffffffffffffffffffffffffffffffffffffff16905060008173ffffffffffffffffffffffffffffffffffffffff166318160ddd6040518163ffffffff1660e01b815260040160206040518083038186803b1580156107bc57600080fd5b505afa1580156107d0573d6000803e3d6000fd5b505050506040513d601f19601f820116820180604052508101906107f491906108ce565b90506107fe610464565b606482600361080d9190610c03565b6108179190610a61565b6108219190610a61565b93505050505b90565b60008135905061083981610e12565b92915050565b60008135905061084e81610e29565b92915050565b60008151905061086381610e40565b92915050565b60006020828403121561087b57600080fd5b60006108898482850161082a565b91505092915050565b600080604083850312156108a557600080fd5b60006108b38582860161083f565b92505060206108c48582860161082a565b9150509250929050565b6000602082840312156108e057600080fd5b60006108ee84828501610854565b91505092915050565b61090081610c91565b82525050565b60006109136026836109fa565b915061091e82610d9a565b604082019050919050565b60006109366020836109fa565b915061094182610de9565b602082019050919050565b61095581610ccf565b82525050565b600060208201905061097060008301846108f7565b92915050565b600060408201905061098b60008301856108f7565b610998602083018461094c565b9392505050565b600060208201905081810360008301526109b881610906565b9050919050565b600060208201905081810360008301526109d881610929565b9050919050565b60006020820190506109f4600083018461094c565b92915050565b600082825260208201905092915050565b6000610a1682610ccf565b9150610a2183610ccf565b9250827fffffffffffffffffffffffffffffffffffffffffffffffffffffffffffffffff03821115610a5657610a55610d2f565b5b828201905092915050565b6000610a6c82610ccf565b9150610a7783610ccf565b925082610a8757610a86610d5e565b5b828204905092915050565b6000808291508390505b6001851115610adc57808604811115610ab857610ab7610d2f565b5b6001851615610ac75780820291505b8081029050610ad585610d8d565b9450610a9c565b94509492505050565b6000610af082610ccf565b9150610afb83610cd9565b9250610b287fffffffffffffffffffffffffffffffffffffffffffffffffffffffffffffffff8484610b30565b905092915050565b600082610b405760019050610bfc565b81610b4e5760009050610bfc565b8160018114610b645760028114610b6e57610b9d565b6001915050610bfc565b60ff841115610b8057610b7f610d2f565b5b8360020a915084821115610b9757610b96610d2f565b5b50610bfc565b5060208310610133831016604e8410600b8410161715610bd25782820a905083811115610bcd57610bcc610d2f565b5b610bfc565b610bdf8484846001610a92565b92509050818404811115610bf657610bf5610d2f565b5b81810290505b9392505050565b6000610c0e82610ccf565b9150610c1983610ccf565b9250817fffffffffffffffffffffffffffffffffffffffffffffffffffffffffffffffff0483118215151615610c5257610c51610d2f565b5b828202905092915050565b6000610c6882610ccf565b9150610c7383610ccf565b925082821015610c8657610c85610d2f565b5b828203905092915050565b6000610c9c82610caf565b9050919050565b60008115159050919050565b600073ffffffffffffffffffffffffffffffffffffffff82169050919050565b6000819050919050565b600060ff82169050919050565b6000610cf182610ccf565b91507fffffffffffffffffffffffffffffffffffffffffffffffffffffffffffffffff821415610d2457610d23610d2f565b5b600182019050919050565b7f4e487b7100000000000000000000000000000000000000000000000000000000600052601160045260246000fd5b7f4e487b7100000000000000000000000000000000000000000000000000000000600052601260045260246000fd5b60008160011c9050919050565b7f4f776e61626c653a206e6577206f776e657220697320746865207a65726f206160008201527f6464726573730000000000000000000000000000000000000000000000000000602082015250565b7f4f776e61626c653a2063616c6c6572206973206e6f7420746865206f776e6572600082015250565b610e1b81610c91565b8114610e2657600080fd5b50565b610e3281610ca3565b8114610e3d57600080fd5b50565b610e4981610ccf565b8114610e5457600080fd5b5056fea26469706673582212206798562e40dde9f2f175c4190692a679fbaf616300dda4e352b3a1e3eb901a9764736f6c63430008040033",
			"opcodes": "PUSH1 0x80 PUSH1 0x40 MSTORE PUSH1 0x0 PUSH1 0x1 SSTORE PUSH1 0x0 PUSH1 0x2 SSTORE PUSH1 0x0 PUSH1 0x3 SSTORE PUSH1 0x4 DUP1 PUSH1 0x14 PUSH2 0x100 EXP DUP2 SLOAD DUP2 PUSH1 0xFF MUL NOT AND SWAP1 DUP4 PUSH1 0xFF AND MUL OR SWAP1 SSTORE POP PUSH1 0x0 PUSH1 0x5 SSTORE CALLVALUE DUP1 ISZERO PUSH3 0x40 JUMPI PUSH1 0x0 DUP1 REVERT JUMPDEST POP PUSH1 0x40 MLOAD PUSH3 0x1206 CODESIZE SUB DUP1 PUSH3 0x1206 DUP4 CODECOPY DUP2 DUP2 ADD PUSH1 0x40 MSTORE DUP2 ADD SWAP1 PUSH3 0x66 SWAP2 SWAP1 PUSH3 0x29C JUMP JUMPDEST PUSH3 0x86 PUSH3 0x7A PUSH3 0x1A2 PUSH1 0x20 SHL PUSH1 0x20 SHR JUMP JUMPDEST PUSH3 0x1AA PUSH1 0x20 SHL PUSH1 0x20 SHR JUMP JUMPDEST TIMESTAMP PUSH1 0x5 DUP2 SWAP1 SSTORE POP PUSH1 0x5 SLOAD PUSH1 0x2 DUP2 SWAP1 SSTORE POP DUP1 PUSH1 0x4 PUSH1 0x0 PUSH2 0x100 EXP DUP2 SLOAD DUP2 PUSH20 0xFFFFFFFFFFFFFFFFFFFFFFFFFFFFFFFFFFFFFFFF MUL NOT AND SWAP1 DUP4 PUSH20 0xFFFFFFFFFFFFFFFFFFFFFFFFFFFFFFFFFFFFFFFF AND MUL OR SWAP1 SSTORE POP PUSH1 0x0 PUSH1 0x4 PUSH1 0x0 SWAP1 SLOAD SWAP1 PUSH2 0x100 EXP SWAP1 DIV PUSH20 0xFFFFFFFFFFFFFFFFFFFFFFFFFFFFFFFFFFFFFFFF AND SWAP1 POP DUP1 PUSH20 0xFFFFFFFFFFFFFFFFFFFFFFFFFFFFFFFFFFFFFFFF AND PUSH4 0x313CE567 PUSH1 0x40 MLOAD DUP2 PUSH4 0xFFFFFFFF AND PUSH1 0xE0 SHL DUP2 MSTORE PUSH1 0x4 ADD PUSH1 0x20 PUSH1 0x40 MLOAD DUP1 DUP4 SUB DUP2 DUP7 DUP1 EXTCODESIZE ISZERO DUP1 ISZERO PUSH3 0x145 JUMPI PUSH1 0x0 DUP1 REVERT JUMPDEST POP GAS STATICCALL ISZERO DUP1 ISZERO PUSH3 0x15A JUMPI RETURNDATASIZE PUSH1 0x0 DUP1 RETURNDATACOPY RETURNDATASIZE PUSH1 0x0 REVERT JUMPDEST POP POP POP POP PUSH1 0x40 MLOAD RETURNDATASIZE PUSH1 0x1F NOT PUSH1 0x1F DUP3 ADD AND DUP3 ADD DUP1 PUSH1 0x40 MSTORE POP DUP2 ADD SWAP1 PUSH3 0x180 SWAP2 SWAP1 PUSH3 0x2C8 JUMP JUMPDEST PUSH1 0x4 PUSH1 0x14 PUSH2 0x100 EXP DUP2 SLOAD DUP2 PUSH1 0xFF MUL NOT AND SWAP1 DUP4 PUSH1 0xFF AND MUL OR SWAP1 SSTORE POP POP POP PUSH3 0x369 JUMP JUMPDEST PUSH1 0x0 CALLER SWAP1 POP SWAP1 JUMP JUMPDEST PUSH1 0x0 DUP1 PUSH1 0x0 SWAP1 SLOAD SWAP1 PUSH2 0x100 EXP SWAP1 DIV PUSH20 0xFFFFFFFFFFFFFFFFFFFFFFFFFFFFFFFFFFFFFFFF AND SWAP1 POP DUP2 PUSH1 0x0 DUP1 PUSH2 0x100 EXP DUP2 SLOAD DUP2 PUSH20 0xFFFFFFFFFFFFFFFFFFFFFFFFFFFFFFFFFFFFFFFF MUL NOT AND SWAP1 DUP4 PUSH20 0xFFFFFFFFFFFFFFFFFFFFFFFFFFFFFFFFFFFFFFFF AND MUL OR SWAP1 SSTORE POP DUP2 PUSH20 0xFFFFFFFFFFFFFFFFFFFFFFFFFFFFFFFFFFFFFFFF AND DUP2 PUSH20 0xFFFFFFFFFFFFFFFFFFFFFFFFFFFFFFFFFFFFFFFF AND PUSH32 0x8BE0079C531659141344CD1FD0A4F28419497F9722A3DAAFE3B4186F6B6457E0 PUSH1 0x40 MLOAD PUSH1 0x40 MLOAD DUP1 SWAP2 SUB SWAP1 LOG3 POP POP JUMP JUMPDEST PUSH1 0x0 DUP2 MLOAD SWAP1 POP PUSH3 0x27F DUP2 PUSH3 0x335 JUMP JUMPDEST SWAP3 SWAP2 POP POP JUMP JUMPDEST PUSH1 0x0 DUP2 MLOAD SWAP1 POP PUSH3 0x296 DUP2 PUSH3 0x34F JUMP JUMPDEST SWAP3 SWAP2 POP POP JUMP JUMPDEST PUSH1 0x0 PUSH1 0x20 DUP3 DUP5 SUB SLT ISZERO PUSH3 0x2AF JUMPI PUSH1 0x0 DUP1 REVERT JUMPDEST PUSH1 0x0 PUSH3 0x2BF DUP5 DUP3 DUP6 ADD PUSH3 0x26E JUMP JUMPDEST SWAP2 POP POP SWAP3 SWAP2 POP POP JUMP JUMPDEST PUSH1 0x0 PUSH1 0x20 DUP3 DUP5 SUB SLT ISZERO PUSH3 0x2DB JUMPI PUSH1 0x0 DUP1 REVERT JUMPDEST PUSH1 0x0 PUSH3 0x2EB DUP5 DUP3 DUP6 ADD PUSH3 0x285 JUMP JUMPDEST SWAP2 POP POP SWAP3 SWAP2 POP POP JUMP JUMPDEST PUSH1 0x0 PUSH3 0x301 DUP3 PUSH3 0x308 JUMP JUMPDEST SWAP1 POP SWAP2 SWAP1 POP JUMP JUMPDEST PUSH1 0x0 PUSH20 0xFFFFFFFFFFFFFFFFFFFFFFFFFFFFFFFFFFFFFFFF DUP3 AND SWAP1 POP SWAP2 SWAP1 POP JUMP JUMPDEST PUSH1 0x0 PUSH1 0xFF DUP3 AND SWAP1 POP SWAP2 SWAP1 POP JUMP JUMPDEST PUSH3 0x340 DUP2 PUSH3 0x2F4 JUMP JUMPDEST DUP2 EQ PUSH3 0x34C JUMPI PUSH1 0x0 DUP1 REVERT JUMPDEST POP JUMP JUMPDEST PUSH3 0x35A DUP2 PUSH3 0x328 JUMP JUMPDEST DUP2 EQ PUSH3 0x366 JUMPI PUSH1 0x0 DUP1 REVERT JUMPDEST POP JUMP JUMPDEST PUSH2 0xE8D DUP1 PUSH3 0x379 PUSH1 0x0 CODECOPY PUSH1 0x0 RETURN INVALID PUSH1 0x80 PUSH1 0x40 MSTORE CALLVALUE DUP1 ISZERO PUSH2 0x10 JUMPI PUSH1 0x0 DUP1 REVERT JUMPDEST POP PUSH1 0x4 CALLDATASIZE LT PUSH2 0x9E JUMPI PUSH1 0x0 CALLDATALOAD PUSH1 0xE0 SHR DUP1 PUSH4 0xB445EC9E GT PUSH2 0x66 JUMPI DUP1 PUSH4 0xB445EC9E EQ PUSH2 0x111 JUMPI DUP1 PUSH4 0xBA24D767 EQ PUSH2 0x12D JUMPI DUP1 PUSH4 0xBCFC8925 EQ PUSH2 0x14B JUMPI DUP1 PUSH4 0xDEC964F2 EQ PUSH2 0x155 JUMPI DUP1 PUSH4 0xF2FDE38B EQ PUSH2 0x15F JUMPI PUSH2 0x9E JUMP JUMPDEST DUP1 PUSH4 0x3E4AE317 EQ PUSH2 0xA3 JUMPI DUP1 PUSH4 0x715018A6 EQ PUSH2 0xAD JUMPI DUP1 PUSH4 0x76671808 EQ PUSH2 0xB7 JUMPI DUP1 PUSH4 0x8DA5CB5B EQ PUSH2 0xD5 JUMPI DUP1 PUSH4 0xA3BEF4D7 EQ PUSH2 0xF3 JUMPI JUMPDEST PUSH1 0x0 DUP1 REVERT JUMPDEST PUSH2 0xAB PUSH2 0x17B JUMP JUMPDEST STOP JUMPDEST PUSH2 0xB5 PUSH2 0x1A0 JUMP JUMPDEST STOP JUMPDEST PUSH2 0xBF PUSH2 0x228 JUMP JUMPDEST PUSH1 0x40 MLOAD PUSH2 0xCC SWAP2 SWAP1 PUSH2 0x9DF JUMP JUMPDEST PUSH1 0x40 MLOAD DUP1 SWAP2 SUB SWAP1 RETURN JUMPDEST PUSH2 0xDD PUSH2 0x232 JUMP JUMPDEST PUSH1 0x40 MLOAD PUSH2 0xEA SWAP2 SWAP1 PUSH2 0x95B JUMP JUMPDEST PUSH1 0x40 MLOAD DUP1 SWAP2 SUB SWAP1 RETURN JUMPDEST PUSH2 0xFB PUSH2 0x25B JUMP JUMPDEST PUSH1 0x40 MLOAD PUSH2 0x108 SWAP2 SWAP1 PUSH2 0x9DF JUMP JUMPDEST PUSH1 0x40 MLOAD DUP1 SWAP2 SUB SWAP1 RETURN JUMPDEST PUSH2 0x12B PUSH1 0x4 DUP1 CALLDATASIZE SUB DUP2 ADD SWAP1 PUSH2 0x126 SWAP2 SWAP1 PUSH2 0x892 JUMP JUMPDEST PUSH2 0x265 JUMP JUMPDEST STOP JUMPDEST PUSH2 0x135 PUSH2 0x464 JUMP JUMPDEST PUSH1 0x40 MLOAD PUSH2 0x142 SWAP2 SWAP1 PUSH2 0x9DF JUMP JUMPDEST PUSH1 0x40 MLOAD DUP1 SWAP2 SUB SWAP1 RETURN JUMPDEST PUSH2 0x153 PUSH2 0x487 JUMP JUMPDEST STOP JUMPDEST PUSH2 0x15D PUSH2 0x4AD JUMP JUMPDEST STOP JUMPDEST PUSH2 0x179 PUSH1 0x4 DUP1 CALLDATASIZE SUB DUP2 ADD SWAP1 PUSH2 0x174 SWAP2 SWAP1 PUSH2 0x869 JUMP JUMPDEST PUSH2 0x4D2 JUMP JUMPDEST STOP JUMPDEST PUSH1 0x1 PUSH3 0x6EBE00 PUSH1 0x5 SLOAD PUSH2 0x18E SWAP2 SWAP1 PUSH2 0xA0B JUMP JUMPDEST PUSH2 0x198 SWAP2 SWAP1 PUSH2 0xA0B JUMP JUMPDEST PUSH1 0x5 DUP2 SWAP1 SSTORE POP JUMP JUMPDEST PUSH2 0x1A8 PUSH2 0x5CA JUMP JUMPDEST PUSH20 0xFFFFFFFFFFFFFFFFFFFFFFFFFFFFFFFFFFFFFFFF AND PUSH2 0x1C6 PUSH2 0x232 JUMP JUMPDEST PUSH20 0xFFFFFFFFFFFFFFFFFFFFFFFFFFFFFFFFFFFFFFFF AND EQ PUSH2 0x21C JUMPI PUSH1 0x40 MLOAD PUSH32 0x8C379A000000000000000000000000000000000000000000000000000000000 DUP2 MSTORE PUSH1 0x4 ADD PUSH2 0x213 SWAP1 PUSH2 0x9BF JUMP JUMPDEST PUSH1 0x40 MLOAD DUP1 SWAP2 SUB SWAP1 REVERT JUMPDEST PUSH2 0x226 PUSH1 0x0 PUSH2 0x5D2 JUMP JUMPDEST JUMP JUMPDEST PUSH1 0x0 PUSH1 0x1 SLOAD SWAP1 POP SWAP1 JUMP JUMPDEST PUSH1 0x0 DUP1 PUSH1 0x0 SWAP1 SLOAD SWAP1 PUSH2 0x100 EXP SWAP1 DIV PUSH20 0xFFFFFFFFFFFFFFFFFFFFFFFFFFFFFFFFFFFFFFFF AND SWAP1 POP SWAP1 JUMP JUMPDEST PUSH1 0x0 PUSH1 0x3 SLOAD SWAP1 POP SWAP1 JUMP JUMPDEST PUSH2 0x26D PUSH2 0x5CA JUMP JUMPDEST PUSH20 0xFFFFFFFFFFFFFFFFFFFFFFFFFFFFFFFFFFFFFFFF AND PUSH2 0x28B PUSH2 0x232 JUMP JUMPDEST PUSH20 0xFFFFFFFFFFFFFFFFFFFFFFFFFFFFFFFFFFFFFFFF AND EQ PUSH2 0x2E1 JUMPI PUSH1 0x40 MLOAD PUSH32 0x8C379A000000000000000000000000000000000000000000000000000000000 DUP2 MSTORE PUSH1 0x4 ADD PUSH2 0x2D8 SWAP1 PUSH2 0x9BF JUMP JUMPDEST PUSH1 0x40 MLOAD DUP1 SWAP2 SUB SWAP1 REVERT JUMPDEST PUSH1 0x9 PUSH1 0x1 SLOAD LT ISZERO PUSH2 0x356 JUMPI DUP2 PUSH2 0x33F JUMPI PUSH1 0x5 SLOAD PUSH4 0x2987400 PUSH1 0x2 SLOAD PUSH2 0x306 SWAP2 SWAP1 PUSH2 0xA0B JUMP JUMPDEST GT ISZERO PUSH2 0x33A JUMPI PUSH2 0x314 PUSH2 0x696 JUMP JUMPDEST PUSH2 0x31D JUMPI PUSH1 0x0 DUP1 REVERT JUMPDEST PUSH1 0x3 PUSH1 0x0 DUP2 SLOAD DUP1 SWAP3 SWAP2 SWAP1 PUSH2 0x330 SWAP1 PUSH2 0xCE6 JUMP JUMPDEST SWAP2 SWAP1 POP SSTORE POP PUSH2 0x460 JUMP JUMPDEST PUSH2 0x351 JUMP JUMPDEST PUSH2 0x347 PUSH2 0x696 JUMP JUMPDEST PUSH2 0x350 JUMPI PUSH1 0x0 DUP1 REVERT JUMPDEST JUMPDEST PUSH2 0x376 JUMP JUMPDEST PUSH1 0x5 SLOAD PUSH4 0x14C3A00 PUSH1 0x2 SLOAD PUSH2 0x36B SWAP2 SWAP1 PUSH2 0xA0B JUMP JUMPDEST LT PUSH2 0x375 JUMPI PUSH1 0x0 DUP1 REVERT JUMPDEST JUMPDEST PUSH1 0x0 PUSH1 0x3 SLOAD GT ISZERO PUSH2 0x38A JUMPI PUSH1 0x0 PUSH1 0x3 DUP2 SWAP1 SSTORE POP JUMPDEST PUSH1 0x0 PUSH2 0x394 PUSH2 0x464 JUMP JUMPDEST PUSH2 0x39C PUSH2 0x6CD JUMP JUMPDEST PUSH2 0x3A6 SWAP2 SWAP1 PUSH2 0xC03 JUMP JUMPDEST SWAP1 POP PUSH1 0x1 PUSH1 0x0 DUP2 SLOAD DUP1 SWAP3 SWAP2 SWAP1 PUSH2 0x3BB SWAP1 PUSH2 0xCE6 JUMP JUMPDEST SWAP2 SWAP1 POP SSTORE POP PUSH1 0x5 SLOAD PUSH1 0x2 DUP2 SWAP1 SSTORE POP PUSH1 0x0 PUSH1 0x4 PUSH1 0x0 SWAP1 SLOAD SWAP1 PUSH2 0x100 EXP SWAP1 DIV PUSH20 0xFFFFFFFFFFFFFFFFFFFFFFFFFFFFFFFFFFFFFFFF AND SWAP1 POP DUP1 PUSH20 0xFFFFFFFFFFFFFFFFFFFFFFFFFFFFFFFFFFFFFFFF AND PUSH4 0x40C10F19 DUP5 DUP5 PUSH1 0x40 MLOAD DUP4 PUSH4 0xFFFFFFFF AND PUSH1 0xE0 SHL DUP2 MSTORE PUSH1 0x4 ADD PUSH2 0x42B SWAP3 SWAP2 SWAP1 PUSH2 0x976 JUMP JUMPDEST PUSH1 0x0 PUSH1 0x40 MLOAD DUP1 DUP4 SUB DUP2 PUSH1 0x0 DUP8 DUP1 EXTCODESIZE ISZERO DUP1 ISZERO PUSH2 0x445 JUMPI PUSH1 0x0 DUP1 REVERT JUMPDEST POP GAS CALL ISZERO DUP1 ISZERO PUSH2 0x459 JUMPI RETURNDATASIZE PUSH1 0x0 DUP1 RETURNDATACOPY RETURNDATASIZE PUSH1 0x0 REVERT JUMPDEST POP POP POP POP POP POP JUMPDEST POP POP JUMP JUMPDEST PUSH1 0x0 PUSH1 0x4 PUSH1 0x14 SWAP1 SLOAD SWAP1 PUSH2 0x100 EXP SWAP1 DIV PUSH1 0xFF AND PUSH1 0xA PUSH2 0x482 SWAP2 SWAP1 PUSH2 0xAE5 JUMP JUMPDEST SWAP1 POP SWAP1 JUMP JUMPDEST PUSH1 0x1 PUSH4 0x14C3A00 PUSH1 0x5 SLOAD PUSH2 0x49B SWAP2 SWAP1 PUSH2 0xA0B JUMP JUMPDEST PUSH2 0x4A5 SWAP2 SWAP1 PUSH2 0xA0B JUMP JUMPDEST PUSH1 0x5 DUP2 SWAP1 SSTORE POP JUMP JUMPDEST PUSH1 0x1 PUSH3 0xDD7C00 PUSH1 0x5 SLOAD PUSH2 0x4C0 SWAP2 SWAP1 PUSH2 0xA0B JUMP JUMPDEST PUSH2 0x4CA SWAP2 SWAP1 PUSH2 0xA0B JUMP JUMPDEST PUSH1 0x5 DUP2 SWAP1 SSTORE POP JUMP JUMPDEST PUSH2 0x4DA PUSH2 0x5CA JUMP JUMPDEST PUSH20 0xFFFFFFFFFFFFFFFFFFFFFFFFFFFFFFFFFFFFFFFF AND PUSH2 0x4F8 PUSH2 0x232 JUMP JUMPDEST PUSH20 0xFFFFFFFFFFFFFFFFFFFFFFFFFFFFFFFFFFFFFFFF AND EQ PUSH2 0x54E JUMPI PUSH1 0x40 MLOAD PUSH32 0x8C379A000000000000000000000000000000000000000000000000000000000 DUP2 MSTORE PUSH1 0x4 ADD PUSH2 0x545 SWAP1 PUSH2 0x9BF JUMP JUMPDEST PUSH1 0x40 MLOAD DUP1 SWAP2 SUB SWAP1 REVERT JUMPDEST PUSH1 0x0 PUSH20 0xFFFFFFFFFFFFFFFFFFFFFFFFFFFFFFFFFFFFFFFF AND DUP2 PUSH20 0xFFFFFFFFFFFFFFFFFFFFFFFFFFFFFFFFFFFFFFFF AND EQ ISZERO PUSH2 0x5BE JUMPI PUSH1 0x40 MLOAD PUSH32 0x8C379A000000000000000000000000000000000000000000000000000000000 DUP2 MSTORE PUSH1 0x4 ADD PUSH2 0x5B5 SWAP1 PUSH2 0x99F JUMP JUMPDEST PUSH1 0x40 MLOAD DUP1 SWAP2 SUB SWAP1 REVERT JUMPDEST PUSH2 0x5C7 DUP2 PUSH2 0x5D2 JUMP JUMPDEST POP JUMP JUMPDEST PUSH1 0x0 CALLER SWAP1 POP SWAP1 JUMP JUMPDEST PUSH1 0x0 DUP1 PUSH1 0x0 SWAP1 SLOAD SWAP1 PUSH2 0x100 EXP SWAP1 DIV PUSH20 0xFFFFFFFFFFFFFFFFFFFFFFFFFFFFFFFFFFFFFFFF AND SWAP1 POP DUP2 PUSH1 0x0 DUP1 PUSH2 0x100 EXP DUP2 SLOAD DUP2 PUSH20 0xFFFFFFFFFFFFFFFFFFFFFFFFFFFFFFFFFFFFFFFF MUL NOT AND SWAP1 DUP4 PUSH20 0xFFFFFFFFFFFFFFFFFFFFFFFFFFFFFFFFFFFFFFFF AND MUL OR SWAP1 SSTORE POP DUP2 PUSH20 0xFFFFFFFFFFFFFFFFFFFFFFFFFFFFFFFFFFFFFFFF AND DUP2 PUSH20 0xFFFFFFFFFFFFFFFFFFFFFFFFFFFFFFFFFFFFFFFF AND PUSH32 0x8BE0079C531659141344CD1FD0A4F28419497F9722A3DAAFE3B4186F6B6457E0 PUSH1 0x40 MLOAD PUSH1 0x40 MLOAD DUP1 SWAP2 SUB SWAP1 LOG3 POP POP JUMP JUMPDEST PUSH1 0x0 PUSH1 0x5 SLOAD PUSH3 0x6EBE00 PUSH1 0x3 SLOAD PUSH2 0x6AC SWAP2 SWAP1 PUSH2 0xC03 JUMP JUMPDEST PUSH3 0xDD7C00 PUSH1 0x2 SLOAD PUSH2 0x6BD SWAP2 SWAP1 PUSH2 0xA0B JUMP JUMPDEST PUSH2 0x6C7 SWAP2 SWAP1 PUSH2 0xA0B JUMP JUMPDEST LT SWAP1 POP SWAP1 JUMP JUMPDEST PUSH1 0x0 DUP1 PUSH1 0x0 SWAP1 POP PUSH1 0x8 PUSH1 0x1 SLOAD LT ISZERO PUSH2 0x6F3 JUMPI PUSH1 0x1 SLOAD PUSH3 0x989680 PUSH2 0x6F0 SWAP2 SWAP1 PUSH2 0xC03 JUMP JUMPDEST SWAP1 POP JUMPDEST PUSH1 0x8 PUSH1 0x1 SLOAD LT PUSH2 0x72B JUMPI PUSH1 0x2 PUSH3 0x989680 PUSH2 0x70D SWAP2 SWAP1 PUSH2 0xA61 JUMP JUMPDEST PUSH1 0x1 SLOAD PUSH3 0x989680 PUSH2 0x71E SWAP2 SWAP1 PUSH2 0xC03 JUMP JUMPDEST PUSH2 0x728 SWAP2 SWAP1 PUSH2 0xC5D JUMP JUMPDEST SWAP1 POP JUMPDEST PUSH1 0x8 PUSH1 0x1 SLOAD GT PUSH2 0x74D JUMPI DUP1 PUSH4 0x55D4A80 PUSH2 0x745 SWAP2 SWAP1 PUSH2 0xC5D JUMP JUMPDEST SWAP2 POP POP PUSH2 0x827 JUMP JUMPDEST PUSH1 0x0 PUSH1 0x4 PUSH1 0x0 SWAP1 SLOAD SWAP1 PUSH2 0x100 EXP SWAP1 DIV PUSH20 0xFFFFFFFFFFFFFFFFFFFFFFFFFFFFFFFFFFFFFFFF AND SWAP1 POP PUSH1 0x0 DUP2 PUSH20 0xFFFFFFFFFFFFFFFFFFFFFFFFFFFFFFFFFFFFFFFF AND PUSH4 0x18160DDD PUSH1 0x40 MLOAD DUP2 PUSH4 0xFFFFFFFF AND PUSH1 0xE0 SHL DUP2 MSTORE PUSH1 0x4 ADD PUSH1 0x20 PUSH1 0x40 MLOAD DUP1 DUP4 SUB DUP2 DUP7 DUP1 EXTCODESIZE ISZERO DUP1 ISZERO PUSH2 0x7BC JUMPI PUSH1 0x0 DUP1 REVERT JUMPDEST POP GAS STATICCALL ISZERO DUP1 ISZERO PUSH2 0x7D0 JUMPI RETURNDATASIZE PUSH1 0x0 DUP1 RETURNDATACOPY RETURNDATASIZE PUSH1 0x0 REVERT JUMPDEST POP POP POP POP PUSH1 0x40 MLOAD RETURNDATASIZE PUSH1 0x1F NOT PUSH1 0x1F DUP3 ADD AND DUP3 ADD DUP1 PUSH1 0x40 MSTORE POP DUP2 ADD SWAP1 PUSH2 0x7F4 SWAP2 SWAP1 PUSH2 0x8CE JUMP JUMPDEST SWAP1 POP PUSH2 0x7FE PUSH2 0x464 JUMP JUMPDEST PUSH1 0x64 DUP3 PUSH1 0x3 PUSH2 0x80D SWAP2 SWAP1 PUSH2 0xC03 JUMP JUMPDEST PUSH2 0x817 SWAP2 SWAP1 PUSH2 0xA61 JUMP JUMPDEST PUSH2 0x821 SWAP2 SWAP1 PUSH2 0xA61 JUMP JUMPDEST SWAP4 POP POP POP POP JUMPDEST SWAP1 JUMP JUMPDEST PUSH1 0x0 DUP2 CALLDATALOAD SWAP1 POP PUSH2 0x839 DUP2 PUSH2 0xE12 JUMP JUMPDEST SWAP3 SWAP2 POP POP JUMP JUMPDEST PUSH1 0x0 DUP2 CALLDATALOAD SWAP1 POP PUSH2 0x84E DUP2 PUSH2 0xE29 JUMP JUMPDEST SWAP3 SWAP2 POP POP JUMP JUMPDEST PUSH1 0x0 DUP2 MLOAD SWAP1 POP PUSH2 0x863 DUP2 PUSH2 0xE40 JUMP JUMPDEST SWAP3 SWAP2 POP POP JUMP JUMPDEST PUSH1 0x0 PUSH1 0x20 DUP3 DUP5 SUB SLT ISZERO PUSH2 0x87B JUMPI PUSH1 0x0 DUP1 REVERT JUMPDEST PUSH1 0x0 PUSH2 0x889 DUP5 DUP3 DUP6 ADD PUSH2 0x82A JUMP JUMPDEST SWAP2 POP POP SWAP3 SWAP2 POP POP JUMP JUMPDEST PUSH1 0x0 DUP1 PUSH1 0x40 DUP4 DUP6 SUB SLT ISZERO PUSH2 0x8A5 JUMPI PUSH1 0x0 DUP1 REVERT JUMPDEST PUSH1 0x0 PUSH2 0x8B3 DUP6 DUP3 DUP7 ADD PUSH2 0x83F JUMP JUMPDEST SWAP3 POP POP PUSH1 0x20 PUSH2 0x8C4 DUP6 DUP3 DUP7 ADD PUSH2 0x82A JUMP JUMPDEST SWAP2 POP POP SWAP3 POP SWAP3 SWAP1 POP JUMP JUMPDEST PUSH1 0x0 PUSH1 0x20 DUP3 DUP5 SUB SLT ISZERO PUSH2 0x8E0 JUMPI PUSH1 0x0 DUP1 REVERT JUMPDEST PUSH1 0x0 PUSH2 0x8EE DUP5 DUP3 DUP6 ADD PUSH2 0x854 JUMP JUMPDEST SWAP2 POP POP SWAP3 SWAP2 POP POP JUMP JUMPDEST PUSH2 0x900 DUP2 PUSH2 0xC91 JUMP JUMPDEST DUP3 MSTORE POP POP JUMP JUMPDEST PUSH1 0x0 PUSH2 0x913 PUSH1 0x26 DUP4 PUSH2 0x9FA JUMP JUMPDEST SWAP2 POP PUSH2 0x91E DUP3 PUSH2 0xD9A JUMP JUMPDEST PUSH1 0x40 DUP3 ADD SWAP1 POP SWAP2 SWAP1 POP JUMP JUMPDEST PUSH1 0x0 PUSH2 0x936 PUSH1 0x20 DUP4 PUSH2 0x9FA JUMP JUMPDEST SWAP2 POP PUSH2 0x941 DUP3 PUSH2 0xDE9 JUMP JUMPDEST PUSH1 0x20 DUP3 ADD SWAP1 POP SWAP2 SWAP1 POP JUMP JUMPDEST PUSH2 0x955 DUP2 PUSH2 0xCCF JUMP JUMPDEST DUP3 MSTORE POP POP JUMP JUMPDEST PUSH1 0x0 PUSH1 0x20 DUP3 ADD SWAP1 POP PUSH2 0x970 PUSH1 0x0 DUP4 ADD DUP5 PUSH2 0x8F7 JUMP JUMPDEST SWAP3 SWAP2 POP POP JUMP JUMPDEST PUSH1 0x0 PUSH1 0x40 DUP3 ADD SWAP1 POP PUSH2 0x98B PUSH1 0x0 DUP4 ADD DUP6 PUSH2 0x8F7 JUMP JUMPDEST PUSH2 0x998 PUSH1 0x20 DUP4 ADD DUP5 PUSH2 0x94C JUMP JUMPDEST SWAP4 SWAP3 POP POP POP JUMP JUMPDEST PUSH1 0x0 PUSH1 0x20 DUP3 ADD SWAP1 POP DUP2 DUP2 SUB PUSH1 0x0 DUP4 ADD MSTORE PUSH2 0x9B8 DUP2 PUSH2 0x906 JUMP JUMPDEST SWAP1 POP SWAP2 SWAP1 POP JUMP JUMPDEST PUSH1 0x0 PUSH1 0x20 DUP3 ADD SWAP1 POP DUP2 DUP2 SUB PUSH1 0x0 DUP4 ADD MSTORE PUSH2 0x9D8 DUP2 PUSH2 0x929 JUMP JUMPDEST SWAP1 POP SWAP2 SWAP1 POP JUMP JUMPDEST PUSH1 0x0 PUSH1 0x20 DUP3 ADD SWAP1 POP PUSH2 0x9F4 PUSH1 0x0 DUP4 ADD DUP5 PUSH2 0x94C JUMP JUMPDEST SWAP3 SWAP2 POP POP JUMP JUMPDEST PUSH1 0x0 DUP3 DUP3 MSTORE PUSH1 0x20 DUP3 ADD SWAP1 POP SWAP3 SWAP2 POP POP JUMP JUMPDEST PUSH1 0x0 PUSH2 0xA16 DUP3 PUSH2 0xCCF JUMP JUMPDEST SWAP2 POP PUSH2 0xA21 DUP4 PUSH2 0xCCF JUMP JUMPDEST SWAP3 POP DUP3 PUSH32 0xFFFFFFFFFFFFFFFFFFFFFFFFFFFFFFFFFFFFFFFFFFFFFFFFFFFFFFFFFFFFFFFF SUB DUP3 GT ISZERO PUSH2 0xA56 JUMPI PUSH2 0xA55 PUSH2 0xD2F JUMP JUMPDEST JUMPDEST DUP3 DUP3 ADD SWAP1 POP SWAP3 SWAP2 POP POP JUMP JUMPDEST PUSH1 0x0 PUSH2 0xA6C DUP3 PUSH2 0xCCF JUMP JUMPDEST SWAP2 POP PUSH2 0xA77 DUP4 PUSH2 0xCCF JUMP JUMPDEST SWAP3 POP DUP3 PUSH2 0xA87 JUMPI PUSH2 0xA86 PUSH2 0xD5E JUMP JUMPDEST JUMPDEST DUP3 DUP3 DIV SWAP1 POP SWAP3 SWAP2 POP POP JUMP JUMPDEST PUSH1 0x0 DUP1 DUP3 SWAP2 POP DUP4 SWAP1 POP JUMPDEST PUSH1 0x1 DUP6 GT ISZERO PUSH2 0xADC JUMPI DUP1 DUP7 DIV DUP2 GT ISZERO PUSH2 0xAB8 JUMPI PUSH2 0xAB7 PUSH2 0xD2F JUMP JUMPDEST JUMPDEST PUSH1 0x1 DUP6 AND ISZERO PUSH2 0xAC7 JUMPI DUP1 DUP3 MUL SWAP2 POP JUMPDEST DUP1 DUP2 MUL SWAP1 POP PUSH2 0xAD5 DUP6 PUSH2 0xD8D JUMP JUMPDEST SWAP5 POP PUSH2 0xA9C JUMP JUMPDEST SWAP5 POP SWAP5 SWAP3 POP POP POP JUMP JUMPDEST PUSH1 0x0 PUSH2 0xAF0 DUP3 PUSH2 0xCCF JUMP JUMPDEST SWAP2 POP PUSH2 0xAFB DUP4 PUSH2 0xCD9 JUMP JUMPDEST SWAP3 POP PUSH2 0xB28 PUSH32 0xFFFFFFFFFFFFFFFFFFFFFFFFFFFFFFFFFFFFFFFFFFFFFFFFFFFFFFFFFFFFFFFF DUP5 DUP5 PUSH2 0xB30 JUMP JUMPDEST SWAP1 POP SWAP3 SWAP2 POP POP JUMP JUMPDEST PUSH1 0x0 DUP3 PUSH2 0xB40 JUMPI PUSH1 0x1 SWAP1 POP PUSH2 0xBFC JUMP JUMPDEST DUP2 PUSH2 0xB4E JUMPI PUSH1 0x0 SWAP1 POP PUSH2 0xBFC JUMP JUMPDEST DUP2 PUSH1 0x1 DUP2 EQ PUSH2 0xB64 JUMPI PUSH1 0x2 DUP2 EQ PUSH2 0xB6E JUMPI PUSH2 0xB9D JUMP JUMPDEST PUSH1 0x1 SWAP2 POP POP PUSH2 0xBFC JUMP JUMPDEST PUSH1 0xFF DUP5 GT ISZERO PUSH2 0xB80 JUMPI PUSH2 0xB7F PUSH2 0xD2F JUMP JUMPDEST JUMPDEST DUP4 PUSH1 0x2 EXP SWAP2 POP DUP5 DUP3 GT ISZERO PUSH2 0xB97 JUMPI PUSH2 0xB96 PUSH2 0xD2F JUMP JUMPDEST JUMPDEST POP PUSH2 0xBFC JUMP JUMPDEST POP PUSH1 0x20 DUP4 LT PUSH2 0x133 DUP4 LT AND PUSH1 0x4E DUP5 LT PUSH1 0xB DUP5 LT AND OR ISZERO PUSH2 0xBD2 JUMPI DUP3 DUP3 EXP SWAP1 POP DUP4 DUP2 GT ISZERO PUSH2 0xBCD JUMPI PUSH2 0xBCC PUSH2 0xD2F JUMP JUMPDEST JUMPDEST PUSH2 0xBFC JUMP JUMPDEST PUSH2 0xBDF DUP5 DUP5 DUP5 PUSH1 0x1 PUSH2 0xA92 JUMP JUMPDEST SWAP3 POP SWAP1 POP DUP2 DUP5 DIV DUP2 GT ISZERO PUSH2 0xBF6 JUMPI PUSH2 0xBF5 PUSH2 0xD2F JUMP JUMPDEST JUMPDEST DUP2 DUP2 MUL SWAP1 POP JUMPDEST SWAP4 SWAP3 POP POP POP JUMP JUMPDEST PUSH1 0x0 PUSH2 0xC0E DUP3 PUSH2 0xCCF JUMP JUMPDEST SWAP2 POP PUSH2 0xC19 DUP4 PUSH2 0xCCF JUMP JUMPDEST SWAP3 POP DUP2 PUSH32 0xFFFFFFFFFFFFFFFFFFFFFFFFFFFFFFFFFFFFFFFFFFFFFFFFFFFFFFFFFFFFFFFF DIV DUP4 GT DUP3 ISZERO ISZERO AND ISZERO PUSH2 0xC52 JUMPI PUSH2 0xC51 PUSH2 0xD2F JUMP JUMPDEST JUMPDEST DUP3 DUP3 MUL SWAP1 POP SWAP3 SWAP2 POP POP JUMP JUMPDEST PUSH1 0x0 PUSH2 0xC68 DUP3 PUSH2 0xCCF JUMP JUMPDEST SWAP2 POP PUSH2 0xC73 DUP4 PUSH2 0xCCF JUMP JUMPDEST SWAP3 POP DUP3 DUP3 LT ISZERO PUSH2 0xC86 JUMPI PUSH2 0xC85 PUSH2 0xD2F JUMP JUMPDEST JUMPDEST DUP3 DUP3 SUB SWAP1 POP SWAP3 SWAP2 POP POP JUMP JUMPDEST PUSH1 0x0 PUSH2 0xC9C DUP3 PUSH2 0xCAF JUMP JUMPDEST SWAP1 POP SWAP2 SWAP1 POP JUMP JUMPDEST PUSH1 0x0 DUP2 ISZERO ISZERO SWAP1 POP SWAP2 SWAP1 POP JUMP JUMPDEST PUSH1 0x0 PUSH20 0xFFFFFFFFFFFFFFFFFFFFFFFFFFFFFFFFFFFFFFFF DUP3 AND SWAP1 POP SWAP2 SWAP1 POP JUMP JUMPDEST PUSH1 0x0 DUP2 SWAP1 POP SWAP2 SWAP1 POP JUMP JUMPDEST PUSH1 0x0 PUSH1 0xFF DUP3 AND SWAP1 POP SWAP2 SWAP1 POP JUMP JUMPDEST PUSH1 0x0 PUSH2 0xCF1 DUP3 PUSH2 0xCCF JUMP JUMPDEST SWAP2 POP PUSH32 0xFFFFFFFFFFFFFFFFFFFFFFFFFFFFFFFFFFFFFFFFFFFFFFFFFFFFFFFFFFFFFFFF DUP3 EQ ISZERO PUSH2 0xD24 JUMPI PUSH2 0xD23 PUSH2 0xD2F JUMP JUMPDEST JUMPDEST PUSH1 0x1 DUP3 ADD SWAP1 POP SWAP2 SWAP1 POP JUMP JUMPDEST PUSH32 0x4E487B7100000000000000000000000000000000000000000000000000000000 PUSH1 0x0 MSTORE PUSH1 0x11 PUSH1 0x4 MSTORE PUSH1 0x24 PUSH1 0x0 REVERT JUMPDEST PUSH32 0x4E487B7100000000000000000000000000000000000000000000000000000000 PUSH1 0x0 MSTORE PUSH1 0x12 PUSH1 0x4 MSTORE PUSH1 0x24 PUSH1 0x0 REVERT JUMPDEST PUSH1 0x0 DUP2 PUSH1 0x1 SHR SWAP1 POP SWAP2 SWAP1 POP JUMP JUMPDEST PUSH32 0x4F776E61626C653A206E6577206F776E657220697320746865207A65726F2061 PUSH1 0x0 DUP3 ADD MSTORE PUSH32 0x6464726573730000000000000000000000000000000000000000000000000000 PUSH1 0x20 DUP3 ADD MSTORE POP JUMP JUMPDEST PUSH32 0x4F776E61626C653A2063616C6C6572206973206E6F7420746865206F776E6572 PUSH1 0x0 DUP3 ADD MSTORE POP JUMP JUMPDEST PUSH2 0xE1B DUP2 PUSH2 0xC91 JUMP JUMPDEST DUP2 EQ PUSH2 0xE26 JUMPI PUSH1 0x0 DUP1 REVERT JUMPDEST POP JUMP JUMPDEST PUSH2 0xE32 DUP2 PUSH2 0xCA3 JUMP JUMPDEST DUP2 EQ PUSH2 0xE3D JUMPI PUSH1 0x0 DUP1 REVERT JUMPDEST POP JUMP JUMPDEST PUSH2 0xE49 DUP2 PUSH2 0xCCF JUMP JUMPDEST DUP2 EQ PUSH2 0xE54 JUMPI PUSH1 0x0 DUP1 REVERT JUMPDEST POP JUMP INVALID LOG2 PUSH5 0x6970667358 0x22 SLT KECCAK256 PUSH8 0x98562E40DDE9F2F1 PUSH22 0xC4190692A679FBAF616300DDA4E352B3A1E3EB901A97 PUSH5 0x736F6C6343 STOP ADDMOD DIV STOP CALLER "
		},
		"gasEstimates": {
			"creation": {
				"codeDepositCost": "745000",
				"executionCost": "infinite",
				"totalCost": "infinite"
			},
			"external": {
				"_dec()": "infinite",
				"currentEpoch()": "1182",
				"inc3()": "infinite",
				"inc6()": "infinite",
				"inc9()": "infinite",
				"mint(bool,address)": "infinite",
				"numVotes()": "1226",
				"owner()": "1289",
				"renounceOwnership()": "24397",
				"transferOwnership(address)": "24811"
			},
			"internal": {
				"_mintAmount()": "infinite",
				"_timePassed()": "infinite"
			}
		},
		"methodIdentifiers": {
			"_dec()": "ba24d767",
			"currentEpoch()": "76671808",
			"inc3()": "3e4ae317",
			"inc6()": "dec964f2",
			"inc9()": "bcfc8925",
			"mint(bool,address)": "b445ec9e",
			"numVotes()": "a3bef4d7",
			"owner()": "8da5cb5b",
			"renounceOwnership()": "715018a6",
			"transferOwnership(address)": "f2fde38b"
		}
	},
	"abi": [
		{
			"inputs": [
				{
					"internalType": "address",
					"name": "token",
					"type": "address"
				}
			],
			"stateMutability": "nonpayable",
			"type": "constructor"
		},
		{
			"anonymous": false,
			"inputs": [
				{
					"indexed": true,
					"internalType": "address",
					"name": "previousOwner",
					"type": "address"
				},
				{
					"indexed": true,
					"internalType": "address",
					"name": "newOwner",
					"type": "address"
				}
			],
			"name": "OwnershipTransferred",
			"type": "event"
		},
		{
			"inputs": [],
			"name": "_dec",
			"outputs": [
				{
					"internalType": "uint256",
					"name": "",
					"type": "uint256"
				}
			],
			"stateMutability": "view",
			"type": "function"
		},
		{
			"inputs": [],
			"name": "currentEpoch",
			"outputs": [
				{
					"internalType": "uint256",
					"name": "",
					"type": "uint256"
				}
			],
			"stateMutability": "view",
			"type": "function"
		},
		{
			"inputs": [],
			"name": "inc3",
			"outputs": [],
			"stateMutability": "nonpayable",
			"type": "function"
		},
		{
			"inputs": [],
			"name": "inc6",
			"outputs": [],
			"stateMutability": "nonpayable",
			"type": "function"
		},
		{
			"inputs": [],
			"name": "inc9",
			"outputs": [],
			"stateMutability": "nonpayable",
			"type": "function"
		},
		{
			"inputs": [
				{
					"internalType": "bool",
					"name": "votesuccess",
					"type": "bool"
				},
				{
					"internalType": "address",
					"name": "to",
					"type": "address"
				}
			],
			"name": "mint",
			"outputs": [],
			"stateMutability": "nonpayable",
			"type": "function"
		},
		{
			"inputs": [],
			"name": "numVotes",
			"outputs": [
				{
					"internalType": "uint256",
					"name": "",
					"type": "uint256"
				}
			],
			"stateMutability": "view",
			"type": "function"
		},
		{
			"inputs": [],
			"name": "owner",
			"outputs": [
				{
					"internalType": "address",
					"name": "",
					"type": "address"
				}
			],
			"stateMutability": "view",
			"type": "function"
		},
		{
			"inputs": [],
			"name": "renounceOwnership",
			"outputs": [],
			"stateMutability": "nonpayable",
			"type": "function"
		},
		{
			"inputs": [
				{
					"internalType": "address",
					"name": "newOwner",
					"type": "address"
				}
			],
			"name": "transferOwnership",
			"outputs": [],
			"stateMutability": "nonpayable",
			"type": "function"
		}
	]
}