{
	"data": {
		"bytecode": {
			"linkReferences": {},
			"object": "6101006040523480156200001257600080fd5b5060405162000e2e38038062000e2e8339818101604052810190620000389190620000ed565b8173ffffffffffffffffffffffffffffffffffffffff1660808173ffffffffffffffffffffffffffffffffffffffff1660601b815250508073ffffffffffffffffffffffffffffffffffffffff1660e08173ffffffffffffffffffffffffffffffffffffffff1660601b815250504260c08181525050606460a081815250505050620001aa565b600081519050620000d08162000176565b92915050565b600081519050620000e78162000190565b92915050565b600080604083850312156200010157600080fd5b60006200011185828601620000d6565b92505060206200012485828601620000bf565b9150509250929050565b60006200013b8262000156565b9050919050565b60006200014f826200012e565b9050919050565b600073ffffffffffffffffffffffffffffffffffffffff82169050919050565b62000181816200012e565b81146200018d57600080fd5b50565b6200019b8162000142565b8114620001a757600080fd5b50565b60805160601c60a05160c05160e05160601c610c3e620001f0600039600060b9015260006102f401526000818161019301526101d9015260006102c80152610c3e6000f3fe608060405234801561001057600080fd5b506004361061004c5760003560e01c806338af3eed14610051578063409a14f31461006f57806386d1a69f1461008d578063fc0c546a14610097575b600080fd5b6100596100b5565b60405161006691906107c2565b60405180910390f35b6100776100dd565b60405161008491906108a3565b60405180910390f35b610095610257565b005b61009f6102c4565b6040516100ac9190610806565b60405180910390f35b60007f0000000000000000000000000000000000000000000000000000000000000000905090565b6000806100e86102c4565b73ffffffffffffffffffffffffffffffffffffffff166370a08231306040518263ffffffff1660e01b815260040161012091906107c2565b60206040518083038186803b15801561013857600080fd5b505afa15801561014c573d6000803e3d6000fd5b505050506040513d601f19601f820116820180604052508101906101709190610682565b90506000811415610185576000915050610254565b600061018f6102ec565b90507f00000000000000000000000000000000000000000000000000000000000000008111156101c3578192505050610254565b6000826000546101d391906108f0565b905060007f0000000000000000000000000000000000000000000000000000000000000000826102039190610946565b90506000816000546102159190610946565b90506000818561022591906109d1565b9050600081141561023f5760009650505050505050610254565b828161024b9190610977565b96505050505050505b90565b60006102616100dd565b90506000811161027057600080fd5b8060008082825461028191906108f0565b925050819055506102c16102936100b5565b8261029c6102c4565b73ffffffffffffffffffffffffffffffffffffffff166103349092919063ffffffff16565b50565b60007f0000000000000000000000000000000000000000000000000000000000000000905090565b6000620151807f000000000000000000000000000000000000000000000000000000000000000061031b6103ba565b61032591906109d1565b61032f9190610946565b905090565b6103b58363a9059cbb60e01b84846040516024016103539291906107dd565b604051602081830303815290604052907bffffffffffffffffffffffffffffffffffffffffffffffffffffffff19166020820180517bffffffffffffffffffffffffffffffffffffffffffffffffffffffff83818316178352505050506103c2565b505050565b600042905090565b6000610424826040518060400160405280602081526020017f5361666545524332303a206c6f772d6c6576656c2063616c6c206661696c65648152508573ffffffffffffffffffffffffffffffffffffffff166104899092919063ffffffff16565b905060008151111561048457808060200190518101906104449190610659565b610483576040517f08c379a000000000000000000000000000000000000000000000000000000000815260040161047a90610883565b60405180910390fd5b5b505050565b606061049884846000856104a1565b90509392505050565b6060824710156104e6576040517f08c379a00000000000000000000000000000000000000000000000000000000081526004016104dd90610843565b60405180910390fd5b6104ef856105b5565b61052e576040517f08c379a000000000000000000000000000000000000000000000000000000000815260040161052590610863565b60405180910390fd5b6000808673ffffffffffffffffffffffffffffffffffffffff16858760405161055791906107ab565b60006040518083038185875af1925050503d8060008114610594576040519150601f19603f3d011682016040523d82523d6000602084013e610599565b606091505b50915091506105a98282866105c8565b92505050949350505050565b600080823b905060008111915050919050565b606083156105d857829050610628565b6000835111156105eb5782518084602001fd5b816040517f08c379a000000000000000000000000000000000000000000000000000000000815260040161061f9190610821565b60405180910390fd5b9392505050565b60008151905061063e81610bda565b92915050565b60008151905061065381610bf1565b92915050565b60006020828403121561066b57600080fd5b60006106798482850161062f565b91505092915050565b60006020828403121561069457600080fd5b60006106a284828501610644565b91505092915050565b6106b481610a05565b82525050565b60006106c5826108be565b6106cf81856108d4565b93506106df818560208601610a71565b80840191505092915050565b6106f481610a4d565b82525050565b6000610705826108c9565b61070f81856108df565b935061071f818560208601610a71565b61072881610b02565b840191505092915050565b60006107406026836108df565b915061074b82610b13565b604082019050919050565b6000610763601d836108df565b915061076e82610b62565b602082019050919050565b6000610786602a836108df565b915061079182610b8b565b604082019050919050565b6107a581610a43565b82525050565b60006107b782846106ba565b915081905092915050565b60006020820190506107d760008301846106ab565b92915050565b60006040820190506107f260008301856106ab565b6107ff602083018461079c565b9392505050565b600060208201905061081b60008301846106eb565b92915050565b6000602082019050818103600083015261083b81846106fa565b905092915050565b6000602082019050818103600083015261085c81610733565b9050919050565b6000602082019050818103600083015261087c81610756565b9050919050565b6000602082019050818103600083015261089c81610779565b9050919050565b60006020820190506108b8600083018461079c565b92915050565b600081519050919050565b600081519050919050565b600081905092915050565b600082825260208201905092915050565b60006108fb82610a43565b915061090683610a43565b9250827fffffffffffffffffffffffffffffffffffffffffffffffffffffffffffffffff0382111561093b5761093a610aa4565b5b828201905092915050565b600061095182610a43565b915061095c83610a43565b92508261096c5761096b610ad3565b5b828204905092915050565b600061098282610a43565b915061098d83610a43565b9250817fffffffffffffffffffffffffffffffffffffffffffffffffffffffffffffffff04831182151516156109c6576109c5610aa4565b5b828202905092915050565b60006109dc82610a43565b91506109e783610a43565b9250828210156109fa576109f9610aa4565b5b828203905092915050565b6000610a1082610a23565b9050919050565b60008115159050919050565b600073ffffffffffffffffffffffffffffffffffffffff82169050919050565b6000819050919050565b6000610a5882610a5f565b9050919050565b6000610a6a82610a23565b9050919050565b60005b83811015610a8f578082015181840152602081019050610a74565b83811115610a9e576000848401525b50505050565b7f4e487b7100000000000000000000000000000000000000000000000000000000600052601160045260246000fd5b7f4e487b7100000000000000000000000000000000000000000000000000000000600052601260045260246000fd5b6000601f19601f8301169050919050565b7f416464726573733a20696e73756666696369656e742062616c616e636520666f60008201527f722063616c6c0000000000000000000000000000000000000000000000000000602082015250565b7f416464726573733a2063616c6c20746f206e6f6e2d636f6e7472616374000000600082015250565b7f5361666545524332303a204552433230206f7065726174696f6e20646964206e60008201527f6f74207375636365656400000000000000000000000000000000000000000000602082015250565b610be381610a17565b8114610bee57600080fd5b50565b610bfa81610a43565b8114610c0557600080fd5b5056fea26469706673582212209f49f1ff9c11662d1af531d2046868c8a120baf1a22e97f35f32414b08d3549164736f6c63430008040033",
			"opcodes": "PUSH2 0x100 PUSH1 0x40 MSTORE CALLVALUE DUP1 ISZERO PUSH3 0x12 JUMPI PUSH1 0x0 DUP1 REVERT JUMPDEST POP PUSH1 0x40 MLOAD PUSH3 0xE2E CODESIZE SUB DUP1 PUSH3 0xE2E DUP4 CODECOPY DUP2 DUP2 ADD PUSH1 0x40 MSTORE DUP2 ADD SWAP1 PUSH3 0x38 SWAP2 SWAP1 PUSH3 0xED JUMP JUMPDEST DUP2 PUSH20 0xFFFFFFFFFFFFFFFFFFFFFFFFFFFFFFFFFFFFFFFF AND PUSH1 0x80 DUP2 PUSH20 0xFFFFFFFFFFFFFFFFFFFFFFFFFFFFFFFFFFFFFFFF AND PUSH1 0x60 SHL DUP2 MSTORE POP POP DUP1 PUSH20 0xFFFFFFFFFFFFFFFFFFFFFFFFFFFFFFFFFFFFFFFF AND PUSH1 0xE0 DUP2 PUSH20 0xFFFFFFFFFFFFFFFFFFFFFFFFFFFFFFFFFFFFFFFF AND PUSH1 0x60 SHL DUP2 MSTORE POP POP TIMESTAMP PUSH1 0xC0 DUP2 DUP2 MSTORE POP POP PUSH1 0x64 PUSH1 0xA0 DUP2 DUP2 MSTORE POP POP POP POP PUSH3 0x1AA JUMP JUMPDEST PUSH1 0x0 DUP2 MLOAD SWAP1 POP PUSH3 0xD0 DUP2 PUSH3 0x176 JUMP JUMPDEST SWAP3 SWAP2 POP POP JUMP JUMPDEST PUSH1 0x0 DUP2 MLOAD SWAP1 POP PUSH3 0xE7 DUP2 PUSH3 0x190 JUMP JUMPDEST SWAP3 SWAP2 POP POP JUMP JUMPDEST PUSH1 0x0 DUP1 PUSH1 0x40 DUP4 DUP6 SUB SLT ISZERO PUSH3 0x101 JUMPI PUSH1 0x0 DUP1 REVERT JUMPDEST PUSH1 0x0 PUSH3 0x111 DUP6 DUP3 DUP7 ADD PUSH3 0xD6 JUMP JUMPDEST SWAP3 POP POP PUSH1 0x20 PUSH3 0x124 DUP6 DUP3 DUP7 ADD PUSH3 0xBF JUMP JUMPDEST SWAP2 POP POP SWAP3 POP SWAP3 SWAP1 POP JUMP JUMPDEST PUSH1 0x0 PUSH3 0x13B DUP3 PUSH3 0x156 JUMP JUMPDEST SWAP1 POP SWAP2 SWAP1 POP JUMP JUMPDEST PUSH1 0x0 PUSH3 0x14F DUP3 PUSH3 0x12E JUMP JUMPDEST SWAP1 POP SWAP2 SWAP1 POP JUMP JUMPDEST PUSH1 0x0 PUSH20 0xFFFFFFFFFFFFFFFFFFFFFFFFFFFFFFFFFFFFFFFF DUP3 AND SWAP1 POP SWAP2 SWAP1 POP JUMP JUMPDEST PUSH3 0x181 DUP2 PUSH3 0x12E JUMP JUMPDEST DUP2 EQ PUSH3 0x18D JUMPI PUSH1 0x0 DUP1 REVERT JUMPDEST POP JUMP JUMPDEST PUSH3 0x19B DUP2 PUSH3 0x142 JUMP JUMPDEST DUP2 EQ PUSH3 0x1A7 JUMPI PUSH1 0x0 DUP1 REVERT JUMPDEST POP JUMP JUMPDEST PUSH1 0x80 MLOAD PUSH1 0x60 SHR PUSH1 0xA0 MLOAD PUSH1 0xC0 MLOAD PUSH1 0xE0 MLOAD PUSH1 0x60 SHR PUSH2 0xC3E PUSH3 0x1F0 PUSH1 0x0 CODECOPY PUSH1 0x0 PUSH1 0xB9 ADD MSTORE PUSH1 0x0 PUSH2 0x2F4 ADD MSTORE PUSH1 0x0 DUP2 DUP2 PUSH2 0x193 ADD MSTORE PUSH2 0x1D9 ADD MSTORE PUSH1 0x0 PUSH2 0x2C8 ADD MSTORE PUSH2 0xC3E PUSH1 0x0 RETURN INVALID PUSH1 0x80 PUSH1 0x40 MSTORE CALLVALUE DUP1 ISZERO PUSH2 0x10 JUMPI PUSH1 0x0 DUP1 REVERT JUMPDEST POP PUSH1 0x4 CALLDATASIZE LT PUSH2 0x4C JUMPI PUSH1 0x0 CALLDATALOAD PUSH1 0xE0 SHR DUP1 PUSH4 0x38AF3EED EQ PUSH2 0x51 JUMPI DUP1 PUSH4 0x409A14F3 EQ PUSH2 0x6F JUMPI DUP1 PUSH4 0x86D1A69F EQ PUSH2 0x8D JUMPI DUP1 PUSH4 0xFC0C546A EQ PUSH2 0x97 JUMPI JUMPDEST PUSH1 0x0 DUP1 REVERT JUMPDEST PUSH2 0x59 PUSH2 0xB5 JUMP JUMPDEST PUSH1 0x40 MLOAD PUSH2 0x66 SWAP2 SWAP1 PUSH2 0x7C2 JUMP JUMPDEST PUSH1 0x40 MLOAD DUP1 SWAP2 SUB SWAP1 RETURN JUMPDEST PUSH2 0x77 PUSH2 0xDD JUMP JUMPDEST PUSH1 0x40 MLOAD PUSH2 0x84 SWAP2 SWAP1 PUSH2 0x8A3 JUMP JUMPDEST PUSH1 0x40 MLOAD DUP1 SWAP2 SUB SWAP1 RETURN JUMPDEST PUSH2 0x95 PUSH2 0x257 JUMP JUMPDEST STOP JUMPDEST PUSH2 0x9F PUSH2 0x2C4 JUMP JUMPDEST PUSH1 0x40 MLOAD PUSH2 0xAC SWAP2 SWAP1 PUSH2 0x806 JUMP JUMPDEST PUSH1 0x40 MLOAD DUP1 SWAP2 SUB SWAP1 RETURN JUMPDEST PUSH1 0x0 PUSH32 0x0 SWAP1 POP SWAP1 JUMP JUMPDEST PUSH1 0x0 DUP1 PUSH2 0xE8 PUSH2 0x2C4 JUMP JUMPDEST PUSH20 0xFFFFFFFFFFFFFFFFFFFFFFFFFFFFFFFFFFFFFFFF AND PUSH4 0x70A08231 ADDRESS PUSH1 0x40 MLOAD DUP3 PUSH4 0xFFFFFFFF AND PUSH1 0xE0 SHL DUP2 MSTORE PUSH1 0x4 ADD PUSH2 0x120 SWAP2 SWAP1 PUSH2 0x7C2 JUMP JUMPDEST PUSH1 0x20 PUSH1 0x40 MLOAD DUP1 DUP4 SUB DUP2 DUP7 DUP1 EXTCODESIZE ISZERO DUP1 ISZERO PUSH2 0x138 JUMPI PUSH1 0x0 DUP1 REVERT JUMPDEST POP GAS STATICCALL ISZERO DUP1 ISZERO PUSH2 0x14C JUMPI RETURNDATASIZE PUSH1 0x0 DUP1 RETURNDATACOPY RETURNDATASIZE PUSH1 0x0 REVERT JUMPDEST POP POP POP POP PUSH1 0x40 MLOAD RETURNDATASIZE PUSH1 0x1F NOT PUSH1 0x1F DUP3 ADD AND DUP3 ADD DUP1 PUSH1 0x40 MSTORE POP DUP2 ADD SWAP1 PUSH2 0x170 SWAP2 SWAP1 PUSH2 0x682 JUMP JUMPDEST SWAP1 POP PUSH1 0x0 DUP2 EQ ISZERO PUSH2 0x185 JUMPI PUSH1 0x0 SWAP2 POP POP PUSH2 0x254 JUMP JUMPDEST PUSH1 0x0 PUSH2 0x18F PUSH2 0x2EC JUMP JUMPDEST SWAP1 POP PUSH32 0x0 DUP2 GT ISZERO PUSH2 0x1C3 JUMPI DUP2 SWAP3 POP POP POP PUSH2 0x254 JUMP JUMPDEST PUSH1 0x0 DUP3 PUSH1 0x0 SLOAD PUSH2 0x1D3 SWAP2 SWAP1 PUSH2 0x8F0 JUMP JUMPDEST SWAP1 POP PUSH1 0x0 PUSH32 0x0 DUP3 PUSH2 0x203 SWAP2 SWAP1 PUSH2 0x946 JUMP JUMPDEST SWAP1 POP PUSH1 0x0 DUP2 PUSH1 0x0 SLOAD PUSH2 0x215 SWAP2 SWAP1 PUSH2 0x946 JUMP JUMPDEST SWAP1 POP PUSH1 0x0 DUP2 DUP6 PUSH2 0x225 SWAP2 SWAP1 PUSH2 0x9D1 JUMP JUMPDEST SWAP1 POP PUSH1 0x0 DUP2 EQ ISZERO PUSH2 0x23F JUMPI PUSH1 0x0 SWAP7 POP POP POP POP POP POP POP PUSH2 0x254 JUMP JUMPDEST DUP3 DUP2 PUSH2 0x24B SWAP2 SWAP1 PUSH2 0x977 JUMP JUMPDEST SWAP7 POP POP POP POP POP POP POP JUMPDEST SWAP1 JUMP JUMPDEST PUSH1 0x0 PUSH2 0x261 PUSH2 0xDD JUMP JUMPDEST SWAP1 POP PUSH1 0x0 DUP2 GT PUSH2 0x270 JUMPI PUSH1 0x0 DUP1 REVERT JUMPDEST DUP1 PUSH1 0x0 DUP1 DUP3 DUP3 SLOAD PUSH2 0x281 SWAP2 SWAP1 PUSH2 0x8F0 JUMP JUMPDEST SWAP3 POP POP DUP2 SWAP1 SSTORE POP PUSH2 0x2C1 PUSH2 0x293 PUSH2 0xB5 JUMP JUMPDEST DUP3 PUSH2 0x29C PUSH2 0x2C4 JUMP JUMPDEST PUSH20 0xFFFFFFFFFFFFFFFFFFFFFFFFFFFFFFFFFFFFFFFF AND PUSH2 0x334 SWAP1 SWAP3 SWAP2 SWAP1 PUSH4 0xFFFFFFFF AND JUMP JUMPDEST POP JUMP JUMPDEST PUSH1 0x0 PUSH32 0x0 SWAP1 POP SWAP1 JUMP JUMPDEST PUSH1 0x0 PUSH3 0x15180 PUSH32 0x0 PUSH2 0x31B PUSH2 0x3BA JUMP JUMPDEST PUSH2 0x325 SWAP2 SWAP1 PUSH2 0x9D1 JUMP JUMPDEST PUSH2 0x32F SWAP2 SWAP1 PUSH2 0x946 JUMP JUMPDEST SWAP1 POP SWAP1 JUMP JUMPDEST PUSH2 0x3B5 DUP4 PUSH4 0xA9059CBB PUSH1 0xE0 SHL DUP5 DUP5 PUSH1 0x40 MLOAD PUSH1 0x24 ADD PUSH2 0x353 SWAP3 SWAP2 SWAP1 PUSH2 0x7DD JUMP JUMPDEST PUSH1 0x40 MLOAD PUSH1 0x20 DUP2 DUP4 SUB SUB DUP2 MSTORE SWAP1 PUSH1 0x40 MSTORE SWAP1 PUSH28 0xFFFFFFFFFFFFFFFFFFFFFFFFFFFFFFFFFFFFFFFFFFFFFFFFFFFFFFFF NOT AND PUSH1 0x20 DUP3 ADD DUP1 MLOAD PUSH28 0xFFFFFFFFFFFFFFFFFFFFFFFFFFFFFFFFFFFFFFFFFFFFFFFFFFFFFFFF DUP4 DUP2 DUP4 AND OR DUP4 MSTORE POP POP POP POP PUSH2 0x3C2 JUMP JUMPDEST POP POP POP JUMP JUMPDEST PUSH1 0x0 TIMESTAMP SWAP1 POP SWAP1 JUMP JUMPDEST PUSH1 0x0 PUSH2 0x424 DUP3 PUSH1 0x40 MLOAD DUP1 PUSH1 0x40 ADD PUSH1 0x40 MSTORE DUP1 PUSH1 0x20 DUP2 MSTORE PUSH1 0x20 ADD PUSH32 0x5361666545524332303A206C6F772D6C6576656C2063616C6C206661696C6564 DUP2 MSTORE POP DUP6 PUSH20 0xFFFFFFFFFFFFFFFFFFFFFFFFFFFFFFFFFFFFFFFF AND PUSH2 0x489 SWAP1 SWAP3 SWAP2 SWAP1 PUSH4 0xFFFFFFFF AND JUMP JUMPDEST SWAP1 POP PUSH1 0x0 DUP2 MLOAD GT ISZERO PUSH2 0x484 JUMPI DUP1 DUP1 PUSH1 0x20 ADD SWAP1 MLOAD DUP2 ADD SWAP1 PUSH2 0x444 SWAP2 SWAP1 PUSH2 0x659 JUMP JUMPDEST PUSH2 0x483 JUMPI PUSH1 0x40 MLOAD PUSH32 0x8C379A000000000000000000000000000000000000000000000000000000000 DUP2 MSTORE PUSH1 0x4 ADD PUSH2 0x47A SWAP1 PUSH2 0x883 JUMP JUMPDEST PUSH1 0x40 MLOAD DUP1 SWAP2 SUB SWAP1 REVERT JUMPDEST JUMPDEST POP POP POP JUMP JUMPDEST PUSH1 0x60 PUSH2 0x498 DUP5 DUP5 PUSH1 0x0 DUP6 PUSH2 0x4A1 JUMP JUMPDEST SWAP1 POP SWAP4 SWAP3 POP POP POP JUMP JUMPDEST PUSH1 0x60 DUP3 SELFBALANCE LT ISZERO PUSH2 0x4E6 JUMPI PUSH1 0x40 MLOAD PUSH32 0x8C379A000000000000000000000000000000000000000000000000000000000 DUP2 MSTORE PUSH1 0x4 ADD PUSH2 0x4DD SWAP1 PUSH2 0x843 JUMP JUMPDEST PUSH1 0x40 MLOAD DUP1 SWAP2 SUB SWAP1 REVERT JUMPDEST PUSH2 0x4EF DUP6 PUSH2 0x5B5 JUMP JUMPDEST PUSH2 0x52E JUMPI PUSH1 0x40 MLOAD PUSH32 0x8C379A000000000000000000000000000000000000000000000000000000000 DUP2 MSTORE PUSH1 0x4 ADD PUSH2 0x525 SWAP1 PUSH2 0x863 JUMP JUMPDEST PUSH1 0x40 MLOAD DUP1 SWAP2 SUB SWAP1 REVERT JUMPDEST PUSH1 0x0 DUP1 DUP7 PUSH20 0xFFFFFFFFFFFFFFFFFFFFFFFFFFFFFFFFFFFFFFFF AND DUP6 DUP8 PUSH1 0x40 MLOAD PUSH2 0x557 SWAP2 SWAP1 PUSH2 0x7AB JUMP JUMPDEST PUSH1 0x0 PUSH1 0x40 MLOAD DUP1 DUP4 SUB DUP2 DUP6 DUP8 GAS CALL SWAP3 POP POP POP RETURNDATASIZE DUP1 PUSH1 0x0 DUP2 EQ PUSH2 0x594 JUMPI PUSH1 0x40 MLOAD SWAP2 POP PUSH1 0x1F NOT PUSH1 0x3F RETURNDATASIZE ADD AND DUP3 ADD PUSH1 0x40 MSTORE RETURNDATASIZE DUP3 MSTORE RETURNDATASIZE PUSH1 0x0 PUSH1 0x20 DUP5 ADD RETURNDATACOPY PUSH2 0x599 JUMP JUMPDEST PUSH1 0x60 SWAP2 POP JUMPDEST POP SWAP2 POP SWAP2 POP PUSH2 0x5A9 DUP3 DUP3 DUP7 PUSH2 0x5C8 JUMP JUMPDEST SWAP3 POP POP POP SWAP5 SWAP4 POP POP POP POP JUMP JUMPDEST PUSH1 0x0 DUP1 DUP3 EXTCODESIZE SWAP1 POP PUSH1 0x0 DUP2 GT SWAP2 POP POP SWAP2 SWAP1 POP JUMP JUMPDEST PUSH1 0x60 DUP4 ISZERO PUSH2 0x5D8 JUMPI DUP3 SWAP1 POP PUSH2 0x628 JUMP JUMPDEST PUSH1 0x0 DUP4 MLOAD GT ISZERO PUSH2 0x5EB JUMPI DUP3 MLOAD DUP1 DUP5 PUSH1 0x20 ADD REVERT JUMPDEST DUP2 PUSH1 0x40 MLOAD PUSH32 0x8C379A000000000000000000000000000000000000000000000000000000000 DUP2 MSTORE PUSH1 0x4 ADD PUSH2 0x61F SWAP2 SWAP1 PUSH2 0x821 JUMP JUMPDEST PUSH1 0x40 MLOAD DUP1 SWAP2 SUB SWAP1 REVERT JUMPDEST SWAP4 SWAP3 POP POP POP JUMP JUMPDEST PUSH1 0x0 DUP2 MLOAD SWAP1 POP PUSH2 0x63E DUP2 PUSH2 0xBDA JUMP JUMPDEST SWAP3 SWAP2 POP POP JUMP JUMPDEST PUSH1 0x0 DUP2 MLOAD SWAP1 POP PUSH2 0x653 DUP2 PUSH2 0xBF1 JUMP JUMPDEST SWAP3 SWAP2 POP POP JUMP JUMPDEST PUSH1 0x0 PUSH1 0x20 DUP3 DUP5 SUB SLT ISZERO PUSH2 0x66B JUMPI PUSH1 0x0 DUP1 REVERT JUMPDEST PUSH1 0x0 PUSH2 0x679 DUP5 DUP3 DUP6 ADD PUSH2 0x62F JUMP JUMPDEST SWAP2 POP POP SWAP3 SWAP2 POP POP JUMP JUMPDEST PUSH1 0x0 PUSH1 0x20 DUP3 DUP5 SUB SLT ISZERO PUSH2 0x694 JUMPI PUSH1 0x0 DUP1 REVERT JUMPDEST PUSH1 0x0 PUSH2 0x6A2 DUP5 DUP3 DUP6 ADD PUSH2 0x644 JUMP JUMPDEST SWAP2 POP POP SWAP3 SWAP2 POP POP JUMP JUMPDEST PUSH2 0x6B4 DUP2 PUSH2 0xA05 JUMP JUMPDEST DUP3 MSTORE POP POP JUMP JUMPDEST PUSH1 0x0 PUSH2 0x6C5 DUP3 PUSH2 0x8BE JUMP JUMPDEST PUSH2 0x6CF DUP2 DUP6 PUSH2 0x8D4 JUMP JUMPDEST SWAP4 POP PUSH2 0x6DF DUP2 DUP6 PUSH1 0x20 DUP7 ADD PUSH2 0xA71 JUMP JUMPDEST DUP1 DUP5 ADD SWAP2 POP POP SWAP3 SWAP2 POP POP JUMP JUMPDEST PUSH2 0x6F4 DUP2 PUSH2 0xA4D JUMP JUMPDEST DUP3 MSTORE POP POP JUMP JUMPDEST PUSH1 0x0 PUSH2 0x705 DUP3 PUSH2 0x8C9 JUMP JUMPDEST PUSH2 0x70F DUP2 DUP6 PUSH2 0x8DF JUMP JUMPDEST SWAP4 POP PUSH2 0x71F DUP2 DUP6 PUSH1 0x20 DUP7 ADD PUSH2 0xA71 JUMP JUMPDEST PUSH2 0x728 DUP2 PUSH2 0xB02 JUMP JUMPDEST DUP5 ADD SWAP2 POP POP SWAP3 SWAP2 POP POP JUMP JUMPDEST PUSH1 0x0 PUSH2 0x740 PUSH1 0x26 DUP4 PUSH2 0x8DF JUMP JUMPDEST SWAP2 POP PUSH2 0x74B DUP3 PUSH2 0xB13 JUMP JUMPDEST PUSH1 0x40 DUP3 ADD SWAP1 POP SWAP2 SWAP1 POP JUMP JUMPDEST PUSH1 0x0 PUSH2 0x763 PUSH1 0x1D DUP4 PUSH2 0x8DF JUMP JUMPDEST SWAP2 POP PUSH2 0x76E DUP3 PUSH2 0xB62 JUMP JUMPDEST PUSH1 0x20 DUP3 ADD SWAP1 POP SWAP2 SWAP1 POP JUMP JUMPDEST PUSH1 0x0 PUSH2 0x786 PUSH1 0x2A DUP4 PUSH2 0x8DF JUMP JUMPDEST SWAP2 POP PUSH2 0x791 DUP3 PUSH2 0xB8B JUMP JUMPDEST PUSH1 0x40 DUP3 ADD SWAP1 POP SWAP2 SWAP1 POP JUMP JUMPDEST PUSH2 0x7A5 DUP2 PUSH2 0xA43 JUMP JUMPDEST DUP3 MSTORE POP POP JUMP JUMPDEST PUSH1 0x0 PUSH2 0x7B7 DUP3 DUP5 PUSH2 0x6BA JUMP JUMPDEST SWAP2 POP DUP2 SWAP1 POP SWAP3 SWAP2 POP POP JUMP JUMPDEST PUSH1 0x0 PUSH1 0x20 DUP3 ADD SWAP1 POP PUSH2 0x7D7 PUSH1 0x0 DUP4 ADD DUP5 PUSH2 0x6AB JUMP JUMPDEST SWAP3 SWAP2 POP POP JUMP JUMPDEST PUSH1 0x0 PUSH1 0x40 DUP3 ADD SWAP1 POP PUSH2 0x7F2 PUSH1 0x0 DUP4 ADD DUP6 PUSH2 0x6AB JUMP JUMPDEST PUSH2 0x7FF PUSH1 0x20 DUP4 ADD DUP5 PUSH2 0x79C JUMP JUMPDEST SWAP4 SWAP3 POP POP POP JUMP JUMPDEST PUSH1 0x0 PUSH1 0x20 DUP3 ADD SWAP1 POP PUSH2 0x81B PUSH1 0x0 DUP4 ADD DUP5 PUSH2 0x6EB JUMP JUMPDEST SWAP3 SWAP2 POP POP JUMP JUMPDEST PUSH1 0x0 PUSH1 0x20 DUP3 ADD SWAP1 POP DUP2 DUP2 SUB PUSH1 0x0 DUP4 ADD MSTORE PUSH2 0x83B DUP2 DUP5 PUSH2 0x6FA JUMP JUMPDEST SWAP1 POP SWAP3 SWAP2 POP POP JUMP JUMPDEST PUSH1 0x0 PUSH1 0x20 DUP3 ADD SWAP1 POP DUP2 DUP2 SUB PUSH1 0x0 DUP4 ADD MSTORE PUSH2 0x85C DUP2 PUSH2 0x733 JUMP JUMPDEST SWAP1 POP SWAP2 SWAP1 POP JUMP JUMPDEST PUSH1 0x0 PUSH1 0x20 DUP3 ADD SWAP1 POP DUP2 DUP2 SUB PUSH1 0x0 DUP4 ADD MSTORE PUSH2 0x87C DUP2 PUSH2 0x756 JUMP JUMPDEST SWAP1 POP SWAP2 SWAP1 POP JUMP JUMPDEST PUSH1 0x0 PUSH1 0x20 DUP3 ADD SWAP1 POP DUP2 DUP2 SUB PUSH1 0x0 DUP4 ADD MSTORE PUSH2 0x89C DUP2 PUSH2 0x779 JUMP JUMPDEST SWAP1 POP SWAP2 SWAP1 POP JUMP JUMPDEST PUSH1 0x0 PUSH1 0x20 DUP3 ADD SWAP1 POP PUSH2 0x8B8 PUSH1 0x0 DUP4 ADD DUP5 PUSH2 0x79C JUMP JUMPDEST SWAP3 SWAP2 POP POP JUMP JUMPDEST PUSH1 0x0 DUP2 MLOAD SWAP1 POP SWAP2 SWAP1 POP JUMP JUMPDEST PUSH1 0x0 DUP2 MLOAD SWAP1 POP SWAP2 SWAP1 POP JUMP JUMPDEST PUSH1 0x0 DUP2 SWAP1 POP SWAP3 SWAP2 POP POP JUMP JUMPDEST PUSH1 0x0 DUP3 DUP3 MSTORE PUSH1 0x20 DUP3 ADD SWAP1 POP SWAP3 SWAP2 POP POP JUMP JUMPDEST PUSH1 0x0 PUSH2 0x8FB DUP3 PUSH2 0xA43 JUMP JUMPDEST SWAP2 POP PUSH2 0x906 DUP4 PUSH2 0xA43 JUMP JUMPDEST SWAP3 POP DUP3 PUSH32 0xFFFFFFFFFFFFFFFFFFFFFFFFFFFFFFFFFFFFFFFFFFFFFFFFFFFFFFFFFFFFFFFF SUB DUP3 GT ISZERO PUSH2 0x93B JUMPI PUSH2 0x93A PUSH2 0xAA4 JUMP JUMPDEST JUMPDEST DUP3 DUP3 ADD SWAP1 POP SWAP3 SWAP2 POP POP JUMP JUMPDEST PUSH1 0x0 PUSH2 0x951 DUP3 PUSH2 0xA43 JUMP JUMPDEST SWAP2 POP PUSH2 0x95C DUP4 PUSH2 0xA43 JUMP JUMPDEST SWAP3 POP DUP3 PUSH2 0x96C JUMPI PUSH2 0x96B PUSH2 0xAD3 JUMP JUMPDEST JUMPDEST DUP3 DUP3 DIV SWAP1 POP SWAP3 SWAP2 POP POP JUMP JUMPDEST PUSH1 0x0 PUSH2 0x982 DUP3 PUSH2 0xA43 JUMP JUMPDEST SWAP2 POP PUSH2 0x98D DUP4 PUSH2 0xA43 JUMP JUMPDEST SWAP3 POP DUP2 PUSH32 0xFFFFFFFFFFFFFFFFFFFFFFFFFFFFFFFFFFFFFFFFFFFFFFFFFFFFFFFFFFFFFFFF DIV DUP4 GT DUP3 ISZERO ISZERO AND ISZERO PUSH2 0x9C6 JUMPI PUSH2 0x9C5 PUSH2 0xAA4 JUMP JUMPDEST JUMPDEST DUP3 DUP3 MUL SWAP1 POP SWAP3 SWAP2 POP POP JUMP JUMPDEST PUSH1 0x0 PUSH2 0x9DC DUP3 PUSH2 0xA43 JUMP JUMPDEST SWAP2 POP PUSH2 0x9E7 DUP4 PUSH2 0xA43 JUMP JUMPDEST SWAP3 POP DUP3 DUP3 LT ISZERO PUSH2 0x9FA JUMPI PUSH2 0x9F9 PUSH2 0xAA4 JUMP JUMPDEST JUMPDEST DUP3 DUP3 SUB SWAP1 POP SWAP3 SWAP2 POP POP JUMP JUMPDEST PUSH1 0x0 PUSH2 0xA10 DUP3 PUSH2 0xA23 JUMP JUMPDEST SWAP1 POP SWAP2 SWAP1 POP JUMP JUMPDEST PUSH1 0x0 DUP2 ISZERO ISZERO SWAP1 POP SWAP2 SWAP1 POP JUMP JUMPDEST PUSH1 0x0 PUSH20 0xFFFFFFFFFFFFFFFFFFFFFFFFFFFFFFFFFFFFFFFF DUP3 AND SWAP1 POP SWAP2 SWAP1 POP JUMP JUMPDEST PUSH1 0x0 DUP2 SWAP1 POP SWAP2 SWAP1 POP JUMP JUMPDEST PUSH1 0x0 PUSH2 0xA58 DUP3 PUSH2 0xA5F JUMP JUMPDEST SWAP1 POP SWAP2 SWAP1 POP JUMP JUMPDEST PUSH1 0x0 PUSH2 0xA6A DUP3 PUSH2 0xA23 JUMP JUMPDEST SWAP1 POP SWAP2 SWAP1 POP JUMP JUMPDEST PUSH1 0x0 JUMPDEST DUP4 DUP2 LT ISZERO PUSH2 0xA8F JUMPI DUP1 DUP3 ADD MLOAD DUP2 DUP5 ADD MSTORE PUSH1 0x20 DUP2 ADD SWAP1 POP PUSH2 0xA74 JUMP JUMPDEST DUP4 DUP2 GT ISZERO PUSH2 0xA9E JUMPI PUSH1 0x0 DUP5 DUP5 ADD MSTORE JUMPDEST POP POP POP POP JUMP JUMPDEST PUSH32 0x4E487B7100000000000000000000000000000000000000000000000000000000 PUSH1 0x0 MSTORE PUSH1 0x11 PUSH1 0x4 MSTORE PUSH1 0x24 PUSH1 0x0 REVERT JUMPDEST PUSH32 0x4E487B7100000000000000000000000000000000000000000000000000000000 PUSH1 0x0 MSTORE PUSH1 0x12 PUSH1 0x4 MSTORE PUSH1 0x24 PUSH1 0x0 REVERT JUMPDEST PUSH1 0x0 PUSH1 0x1F NOT PUSH1 0x1F DUP4 ADD AND SWAP1 POP SWAP2 SWAP1 POP JUMP JUMPDEST PUSH32 0x416464726573733A20696E73756666696369656E742062616C616E636520666F PUSH1 0x0 DUP3 ADD MSTORE PUSH32 0x722063616C6C0000000000000000000000000000000000000000000000000000 PUSH1 0x20 DUP3 ADD MSTORE POP JUMP JUMPDEST PUSH32 0x416464726573733A2063616C6C20746F206E6F6E2D636F6E7472616374000000 PUSH1 0x0 DUP3 ADD MSTORE POP JUMP JUMPDEST PUSH32 0x5361666545524332303A204552433230206F7065726174696F6E20646964206E PUSH1 0x0 DUP3 ADD MSTORE PUSH32 0x6F74207375636365656400000000000000000000000000000000000000000000 PUSH1 0x20 DUP3 ADD MSTORE POP JUMP JUMPDEST PUSH2 0xBE3 DUP2 PUSH2 0xA17 JUMP JUMPDEST DUP2 EQ PUSH2 0xBEE JUMPI PUSH1 0x0 DUP1 REVERT JUMPDEST POP JUMP JUMPDEST PUSH2 0xBFA DUP2 PUSH2 0xA43 JUMP JUMPDEST DUP2 EQ PUSH2 0xC05 JUMPI PUSH1 0x0 DUP1 REVERT JUMPDEST POP JUMP INVALID LOG2 PUSH5 0x6970667358 0x22 SLT KECCAK256 SWAP16 0x49 CALL SELFDESTRUCT SWAP13 GT PUSH7 0x2D1AF531D20468 PUSH9 0xC8A120BAF1A22E97F3 0x5F ORIGIN COINBASE 0x4B ADDMOD 0xD3 SLOAD SWAP2 PUSH5 0x736F6C6343 STOP ADDMOD DIV STOP CALLER "
		},
		"gasEstimates": {
			"creation": {
				"codeDepositCost": "626800",
				"executionCost": "infinite",
				"totalCost": "infinite"
			},
			"external": {
				"amountCanRelease()": "infinite",
				"beneficiary()": "infinite",
				"release()": "infinite",
				"token()": "infinite"
			},
			"internal": {
				"_blocktime()": "22",
				"_daysSinceStart()": "infinite"
			}
		},
		"methodIdentifiers": {
			"amountCanRelease()": "409a14f3",
			"beneficiary()": "38af3eed",
			"release()": "86d1a69f",
			"token()": "fc0c546a"
		}
	},
	"abi": [
		{
			"inputs": [
				{
					"internalType": "contract IERC20",
					"name": "token_",
					"type": "address"
				},
				{
					"internalType": "address",
					"name": "beneficiary_",
					"type": "address"
				}
			],
			"stateMutability": "nonpayable",
			"type": "constructor"
		},
		{
			"inputs": [],
			"name": "amountCanRelease",
			"outputs": [
				{
					"internalType": "uint256",
					"name": "",
					"type": "uint256"
				}
			],
			"stateMutability": "view",
			"type": "function"
		},
		{
			"inputs": [],
			"name": "beneficiary",
			"outputs": [
				{
					"internalType": "address",
					"name": "",
					"type": "address"
				}
			],
			"stateMutability": "view",
			"type": "function"
		},
		{
			"inputs": [],
			"name": "release",
			"outputs": [],
			"stateMutability": "nonpayable",
			"type": "function"
		},
		{
			"inputs": [],
			"name": "token",
			"outputs": [
				{
					"internalType": "contract IERC20",
					"name": "",
					"type": "address"
				}
			],
			"stateMutability": "view",
			"type": "function"
		}
	]
}